:020000023000CC
:10F000000D949AF80D94C3F80D94C3F80D94C3F8B9
:10F010000D94C3F80D94C3F80D94C3F80D94C3F880
:10F020000D94C3F80D94C3F80D94C3F80D94C3F870
:10F030000D94C3F80D94C3F80D94C3F80D94C3F860
:10F040000D94C3F80D94C3F80D94C3F80D94C3F850
:10F050000D94C3F80D94C3F80D94C3F80D94C3F840
:10F060000D94C3F80D94C3F80D94C3F80D94C3F830
:10F070000D94C3F80D94C3F80D94C3F80D94C3F820
:10F080000D94C3F80D94C3F80D94C3F80D94C3F810
:10F090000D94C3F80D94C3F80D94C3F80D94C3F800
:10F0A0000D94C3F80D94C3F80D94C3F80D94C3F8F0
:10F0B0000D94C3F80D94C3F80D94C3F80D94C3F8E0
:10F0C0000D94C3F80D94C3F80D94C3F80D94C3F8D0
:10F0D0000D94C3F80D94C3F80D94C3F80D94C3F8C0
:10F0E0000D94C3F80D94C3F80D94C3F80D94C3F8B0
:10F0F0000D94C3F80D94C3F80D94C3F80D94C3F8A0
:10F100000D94C3F80D94C3F80D94C3F80D94C3F88F
:10F110000D94C3F80D94C3F80D94C3F80D94C3F87F
:10F120000D94C3F80D94C3F80D94C3F80D94C3F86F
:10F130000D94C3F811241FBECFEFD1E8DEBFCDBFC1
:10F1400001E00CBF12E0A0E0B2E0E4EAF8EF03E077
:10F150000BBF02C007900D92A430B107D9F722E08F
:10F16000A4E0B2E001C01D92A630B207E1F70F940F
:10F17000E0F80D9450FC01E80EBF0FEF0DBF112415
:10F180001FBE0D94E0F80D9400F88093CE0080919E
:10F19000C80086FFFCCF8091C80080648093C800BF
:10F1A000089520E030E02817390749F0E7EEF3E052
:10F1B0003197F1F700C000002F5F3F4FF4CF089563
:10F1C000CF93DF93CDB7DEB7C552D1400FB6F894D9
:10F1D000DEBF0FBECDBF01E80EBF0FEF0DBF94B76E
:10F1E000F894A89514BE80916000886180936000B7
:10F1F00010926000789493FF05C0E0910402F091B2
:10F2000005021995249A2C9A6C981092C8001092B5
:10F21000C9008091CE008091C80082608093C800B0
:10F2200089E18093CC0088E18093C9000000649953
:10F23000E5C2C12CD12C760163EE862E6DE0962EB0
:10F24000A12CB12C70E1772E00E010E08091C80075
:10F2500087FF06C00F5F1F4F01151105A9F327C0D7
:10F2600001151105B9F722E02A95F1F700C04FEF1B
:10F27000C41AD40AE40AF40A91E080E0A1EFCA16A5
:10F28000A9E4DA06A2E0EA06F10408F490E0092F06
:10F29000182FC701B601A50194010F9420FC672B1C
:10F2A000682B692B99F685B1872585B9CFCF0130B9
:10F2B000110509F0A3C2C25EDE4F1882CE51D140C3
:10F2C000312CCC5DDE4F19821882C452D140C12C42
:10F2D000D12C7601412C512C320120E030E060E04D
:10F2E00001301105F9F080E090E0DC014091C800A8
:10F2F00047FD18C00196A11DB11D8130E9E09E07B0
:10F30000EDE3AE07B10590F3812C912C5401ABBE17
:10F31000F401479156914F3F5F4F29F3EE27FF27A6
:10F320000994E1CF4091CE00633009F120F46130BF
:10F3300079F040F015C0653051F1E8F0663009F41D
:10F3400046C090C04B3109F46DC200E010E0C8CF58
:10F350003426C25EDE4F4883CE51D14062E0F5CF05
:10F36000242F30E0322F2227342663E0EECF242BE7
:10F37000342664E0EACF4E3009F060C23426CC5D1A
:10F38000DE4F19821882C452D14065E0DECFCC5DD9
:10F39000DE4F88819981C452D1400196E1E0F0E0CE
:10F3A000EC0FFD1FCC5DDE4F88809980C452D140A8
:10F3B000E80DF91D408334268217930709F436C2FD
:10F3C000CC5DDE4F99838883C452D140BECF4311B8
:10F3D00035C22981233109F4E3C060F5263009F4F0
:10F3E000CCC000F5223009F441C0233009F46BC0D1
:10F3F000213009F0B0C11A8288E08B8381E48C83CC
:10F4000086E58D8382E58E8389E48F8383E5888713
:10F4100080E589878FE58A8782E38B87212C0BE043
:10F4200010E09EC1213109F45BC008F09DC020317D
:10F43000E9F091C1283109F46FC048F4253109F48D
:10F44000AFC008F433C1263109F430C184C12A3178
:10F4500009F455C008F476C02B3109F445C02D31AC
:10F4600039F079C1673009F4B4CF6FCF212C3AC09D
:10F470008D81803339F49F819923B1F09130B1F4BB
:10F4800098EA17C0982F907599F0803521F499E08B
:10F49000E0E0F0E005C0883559F4E3E0F0E099E001
:10F4A00090935700949105C09EE103C092E001C083
:10F4B00090E01A821B828C831D829E831F82212CE6
:10F4C00007E010E04DC1EA81E059E33028F4F0E0B4
:10F4D000E050FE4F808101C080E01A828B8340C0E3
:10F4E000222423941A823AC18D81882321F081300D
:10F4F00021F488EA24C08EE122C082E020C01A8272
:10F50000E1E0F0E089E080935700E491EB831C8216
:10F51000212C04E010E024C18B81803551F48C81D2
:10F52000883019F4E2E0F0E006C089E0E0E0F0E0C5
:10F5300003C0E3E0F0E089E08093570084911A82F1
:10F540008B83E5CF8D81836C99E0E1E0F0E0082EBC
:10F5500090935700E89507B600FCFDCF1A821B82F6
:10F56000212C03E010E0FCC080EC8A83212C02E017
:10F5700010E0C12CD12C7601F3C08A814B80512C34
:10F58000612C712C320155244424782A8D81482A1B
:10F590008C81582A440C551C661C771C1A82DDC0CD
:10F5A0002A80312C322C22248B81282A233109F005
:10F5B00047C0C114F0ECDF06F3E0EF06F10478F485
:10F5C00083E0882EF601E0925B0080925700E89578
:10F5D00007B600FCFDCF2FEFD21AE20AF20A2B8504
:10F5E000B301A201CE010B9611E0DC011296CD0110
:10F5F000FD013197E08130E03E2B0901FA01609373
:10F600005B0010935700E89511244E5F5F4F6F4FDA
:10F610007F4FE2E02E1A31082114310411F02C91B1
:10F62000E4CF85E0F20160925B0080935700E8959B
:10F6300007B600FCFDCF81E180935700E89532C00A
:10F6400053014201B694A79497948794C15EDE4F0C
:10F6500088829982AA82BB82CF51D1408E01055FF8
:10F660001F4FA12CB12CA214B30489F0D8016D91C5
:10F670008D01C15EDE4F88819981CF51D1408A0DC5
:10F680009B1D0F9442FCBFEFAB1ABB0AECCFA50148
:10F6900060E070E0440F551F661F771F440D551D35
:10F6A000661D771D1A822A013B0157C08A8190E0AE
:10F6B000982F88273B81832B8C010D5F1F4F1A8267
:10F6C0002431A1F4DE0113966BBEF201279136912D
:10F6D0002C931296FD0131973083E2E04E0E511CBF
:10F6E000611C711C0297009779F732C0FE013396B6
:10F6F0009C01B301A20141BD852E962EA72EBB24ED
:10F70000C15EDE4F88829982AA82BB82CF51D140EE
:10F7100082BC4F5F5F4F6F4F7F4FF89AA0B5A193A8
:10F72000215031092115310531F7AC014150510902
:10F7300060E070E04F5F5F4F6F4F7F4F440E551E8C
:10F74000661E771EA3E0B0E0AC0FBD1FA80FB91F67
:10F750001C92212C05C080EC8A83212C02E010E051
:10F760008BE10F94C5F8C25EDE4F8881CE51D14047
:10F770000F94C5F8812F0F94C5F8802F0F94C5F80A
:10F780008EE00F94C5F895E1392EC25EDE4F988069
:10F79000CE51D140392430263126CE0101965C016C
:10F7A000080F191FA016B10691F0F50191915F01A4
:10F7B000892FCD5DDE4F9883C352D1400F94C5F899
:10F7C000CD5DDE4F9881C352D1403926EBCF832DDA
:10F7D0000F94C5F8C25EDE4F2881CE51D1402F5F15
:10F7E000C25EDE4F2883CE51D14085B190E189279A
:10F7F00085B9211003C000E010E06FCD24982C984B
:10F8000084E690E00F94D1F800008091C8008D7FCD
:10F810008093C80081E180935700E895EE27FF2789
:10F820000994FFCF8BE1382E61E08FCDCC5DDE4FA8
:10F8300039832883C452D14066E087CD60E085CD0E
:10F84000A1E21A2EAA1BBB1BFD010DC0AA1FBB1FE4
:10F85000EE1FFF1FA217B307E407F50720F0A21B56
:10F86000B30BE40BF50B661F771F881F991F1A94C3
:10F8700069F760957095809590959B01AC01BD01ED
:10F88000CF010895262FF999FECF1FBA92BD81BDF1
:10F8900020BD0FB6F894FA9AF99A0FBE0196089512
:04F8A000F894FFCF0A
:04F8A4000F020A0045
:040000033000F000D9
:00000001FF
